{
  "contractName": "ModifierContract",
  "abi": [
    {
      "inputs": [],
      "payable": false,
      "stateMutability": "nonpayable",
      "type": "constructor"
    },
    {
      "constant": true,
      "inputs": [],
      "name": "name",
      "outputs": [
        {
          "internalType": "string",
          "name": "",
          "type": "string"
        }
      ],
      "payable": false,
      "stateMutability": "view",
      "type": "function"
    }
  ],
  "bytecode": "0x608060405234801561001057600080fd5b5060405180606001604052806031815260200161027f603191396000908051906020019061003f929190610045565b506100ea565b828054600181600116156101000203166002900490600052602060002090601f016020900481019282601f1061008657805160ff19168380011785556100b4565b828001600101855582156100b4579182015b828111156100b3578251825591602001919060010190610098565b5b5090506100c191906100c5565b5090565b6100e791905b808211156100e35760008160009055506001016100cb565b5090565b90565b610186806100f96000396000f3fe608060405234801561001057600080fd5b506004361061002b5760003560e01c806306fdde0314610030575b600080fd5b6100386100b3565b6040518080602001828103825283818151815260200191508051906020019080838360005b8381101561007857808201518184015260208101905061005d565b50505050905090810190601f1680156100a55780820380516001836020036101000a031916815260200191505b509250505060405180910390f35b60008054600181600116156101000203166002900480601f0160208091040260200160405190810160405280929190818152602001828054600181600116156101000203166002900480156101495780601f1061011e57610100808354040283529160200191610149565b820191906000526020600020905b81548152906001019060200180831161012c57829003601f168201915b50505050508156fea265627a7a723158206ce6d12c3c086b397090175b11dbb6560a08f351d6fe31dcfb18283166464cde64736f6c634300051000324d6f64696669657220436f6e74726163742c206f6e6c7920666f7220636865636b696e6720726571756972656d656e7473",
  "source": "pragma solidity ^0.5.0;\r\n\r\n\r\ncontract ModifierContract{\r\n    string public name;\r\n\r\n    constructor() public {\r\n        name = \"Modifier Contract, only for checking requirements\";\r\n    }\r\n\r\n    modifier uploadFileReqs(\r\n        string memory _fileHash,\r\n        uint256 _fileSize,\r\n        string memory _fileType,\r\n        string memory _fileName,\r\n        string memory _fileDescription\r\n    ) {\r\n        require(bytes(_fileHash).length > 0);\r\n        require(bytes(_fileType).length > 0);\r\n        require(bytes(_fileName).length > 0);\r\n        require(bytes(_fileDescription).length > 0);\r\n\r\n        require(msg.sender != address(0));\r\n        require(_fileSize > 0);\r\n        _;\r\n    }\r\n}\r\n\r\n\r\n\r\n\r\ncontract DStorage is ModifierContract{\r\n    string public name;\r\n    uint256 public fileCount = 0;\r\n\r\n    struct File {\r\n        uint256 fileId;\r\n        string fileHash;\r\n        uint256 fileSize;\r\n        string fileType;\r\n        string fileName;\r\n        string fileDescription;\r\n        uint256 uploadTime;\r\n        address payable uploader;\r\n    }\r\n\r\n    // for mapping file number to their corresponding hash\r\n    mapping(uint256 => File) public files;\r\n\r\n    event FileUploaded(\r\n        uint256 fileId,\r\n        string fileHash,\r\n        uint256 fileSize,\r\n        string fileType,\r\n        string fileName,\r\n        string fileDescription,\r\n        uint256 uploadTime,\r\n        address payable uploader\r\n    );\r\n\r\n    constructor() public {\r\n        name = \"Decentralized Storage Box\";\r\n    }\r\n\r\n    function uploadFile(\r\n        string memory _fileHash,\r\n        uint256 _fileSize,\r\n        string memory _fileType,\r\n        string memory _fileName,\r\n        string memory _fileDescription\r\n    ) public uploadFileReqs(_fileHash, _fileSize, _fileType, _fileName, _fileDescription) {\r\n\r\n        fileCount++;\r\n        files[fileCount] = File(fileCount, _fileHash, _fileSize, _fileType, _fileName, _fileDescription, now, msg.sender);\r\n\r\n        emit FileUploaded(\r\n            fileCount, _fileHash, _fileSize, _fileType, _fileName, _fileDescription, now, msg.sender\r\n        );\r\n    }\r\n}\r\n",
  "sourcePath": "E:\\projects\\decentralized-storage-system\\src\\contracts\\decen-storage.sol",
  "compiler": {
    "name": "solc",
    "version": "0.5.16+commit.9c3226ce.Emscripten.clang"
  },
  "schemaVersion": "3.4.3",
  "updatedAt": "2021-10-07T02:08:15.260Z",
  "devdoc": {
    "methods": {}
  },
  "userdoc": {
    "methods": {}
  }
}